{
  "contractName": "VotingContract",
  "abi": [
    {
      "anonymous": false,
      "inputs": [
        {
          "indexed": false,
          "internalType": "uint256",
          "name": "userId",
          "type": "uint256"
        },
        {
          "indexed": false,
          "internalType": "uint256",
          "name": "candidateId",
          "type": "uint256"
        },
        {
          "indexed": false,
          "internalType": "uint256",
          "name": "electionId",
          "type": "uint256"
        },
        {
          "indexed": false,
          "internalType": "uint256",
          "name": "timestamp",
          "type": "uint256"
        }
      ],
      "name": "VoteCast",
      "type": "event"
    },
    {
      "inputs": [
        {
          "internalType": "uint256",
          "name": "",
          "type": "uint256"
        },
        {
          "internalType": "uint256",
          "name": "",
          "type": "uint256"
        }
      ],
      "name": "hasVoted",
      "outputs": [
        {
          "internalType": "bool",
          "name": "",
          "type": "bool"
        }
      ],
      "stateMutability": "view",
      "type": "function",
      "constant": true
    },
    {
      "inputs": [
        {
          "internalType": "uint256",
          "name": "",
          "type": "uint256"
        }
      ],
      "name": "votes",
      "outputs": [
        {
          "internalType": "uint256",
          "name": "userId",
          "type": "uint256"
        },
        {
          "internalType": "uint256",
          "name": "candidateId",
          "type": "uint256"
        },
        {
          "internalType": "uint256",
          "name": "electionId",
          "type": "uint256"
        },
        {
          "internalType": "uint256",
          "name": "timestamp",
          "type": "uint256"
        }
      ],
      "stateMutability": "view",
      "type": "function",
      "constant": true
    },
    {
      "inputs": [
        {
          "internalType": "uint256",
          "name": "_userId",
          "type": "uint256"
        },
        {
          "internalType": "uint256",
          "name": "_candidateId",
          "type": "uint256"
        },
        {
          "internalType": "uint256",
          "name": "_electionId",
          "type": "uint256"
        }
      ],
      "name": "castVote",
      "outputs": [],
      "stateMutability": "nonpayable",
      "type": "function"
    },
    {
      "inputs": [
        {
          "internalType": "uint256",
          "name": "_userId",
          "type": "uint256"
        },
        {
          "internalType": "uint256",
          "name": "_electionId",
          "type": "uint256"
        }
      ],
      "name": "checkHasVoted",
      "outputs": [
        {
          "internalType": "bool",
          "name": "",
          "type": "bool"
        }
      ],
      "stateMutability": "view",
      "type": "function",
      "constant": true
    },
    {
      "inputs": [
        {
          "internalType": "uint256",
          "name": "_electionId",
          "type": "uint256"
        }
      ],
      "name": "getVoteCount",
      "outputs": [
        {
          "internalType": "uint256",
          "name": "",
          "type": "uint256"
        }
      ],
      "stateMutability": "view",
      "type": "function",
      "constant": true
    },
    {
      "inputs": [
        {
          "internalType": "uint256",
          "name": "index",
          "type": "uint256"
        }
      ],
      "name": "getVote",
      "outputs": [
        {
          "components": [
            {
              "internalType": "uint256",
              "name": "userId",
              "type": "uint256"
            },
            {
              "internalType": "uint256",
              "name": "candidateId",
              "type": "uint256"
            },
            {
              "internalType": "uint256",
              "name": "electionId",
              "type": "uint256"
            },
            {
              "internalType": "uint256",
              "name": "timestamp",
              "type": "uint256"
            }
          ],
          "internalType": "struct VotingContract.Vote",
          "name": "",
          "type": "tuple"
        }
      ],
      "stateMutability": "view",
      "type": "function",
      "constant": true
    },
    {
      "inputs": [
        {
          "internalType": "uint256",
          "name": "_electionId",
          "type": "uint256"
        }
      ],
      "name": "getElectionResults",
      "outputs": [
        {
          "internalType": "uint256[]",
          "name": "",
          "type": "uint256[]"
        },
        {
          "internalType": "uint256[]",
          "name": "",
          "type": "uint256[]"
        }
      ],
      "stateMutability": "view",
      "type": "function",
      "constant": true
    }
  ],
  "bytecode": "0x608060405234801561001057600080fd5b50610db4806100206000396000f3fe608060405234801561001057600080fd5b506004361061007d5760003560e01c80635df813301161005b5780635df81330146100fe57806364390ff114610131578063b2c2f2e814610161578063e8ededa6146101915761007d565b806344e0e168146100825780635a55c1f0146100b25780635be5e3ec146100e2575b600080fd5b61009c60048036038101906100979190610959565b6101c2565b6040516100a99190610bb9565b60405180910390f35b6100cc60048036038101906100c79190610930565b6101fe565b6040516100d99190610c14565b60405180910390f35b6100fc60048036038101906100f79190610995565b6102cf565b005b61011860048036038101906101139190610930565b61043b565b6040516101289493929190610c4a565b60405180910390f35b61014b60048036038101906101469190610959565b61047b565b6040516101589190610bb9565b60405180910390f35b61017b60048036038101906101769190610930565b6104aa565b6040516101889190610c2f565b60405180910390f35b6101ab60048036038101906101a69190610930565b610540565b6040516101b9929190610b82565b60405180910390f35b600060016000848152602001908152602001600020600083815260200190815260200160002060009054906101000a900460ff16905092915050565b6102066108f3565b600080549050821061024d576040517f08c379a000000000000000000000000000000000000000000000000000000000815260040161024490610bd4565b60405180910390fd5b60008281548110610287577f4e487b7100000000000000000000000000000000000000000000000000000000600052603260045260246000fd5b90600052602060002090600402016040518060800160405290816000820154815260200160018201548152602001600282015481526020016003820154815250509050919050565b60016000848152602001908152602001600020600082815260200190815260200160002060009054906101000a900460ff1615610341576040517f08c379a000000000000000000000000000000000000000000000000000000000815260040161033890610bf4565b60405180910390fd5b6000604051806080016040528085815260200184815260200183815260200142815250905060008190806001815401808255809150506001900390600052602060002090600402016000909190919091506000820151816000015560208201518160010155604082015181600201556060820151816003015550507f2327a15d67e277c37565fa2884c3b26a1013ceff86bc0214b280225ba1be19a7848484426040516103f19493929190610c4a565b60405180910390a16001806000868152602001908152602001600020600084815260200190815260200160002060006101000a81548160ff02191690831515021790555050505050565b6000818154811061044b57600080fd5b90600052602060002090600402016000915090508060000154908060010154908060020154908060030154905084565b60016020528160005260406000206020528060005260406000206000915091509054906101000a900460ff1681565b6000806000905060005b6000805490508110156105365783600082815481106104fc577f4e487b7100000000000000000000000000000000000000000000000000000000600052603260045260246000fd5b906000526020600020906004020160020154141561052357818061051f90610cef565b9250505b808061052e90610cef565b9150506104b4565b5080915050919050565b6060806000805b6000805490508110156105c957846000828154811061058f577f4e487b7100000000000000000000000000000000000000000000000000000000600052603260045260246000fd5b90600052602060002090600402016002015414156105b65781806105b290610cef565b9250505b80806105c190610cef565b915050610547565b5060008167ffffffffffffffff81111561060c577f4e487b7100000000000000000000000000000000000000000000000000000000600052604160045260246000fd5b60405190808252806020026020018201604052801561063a5781602001602082028036833780820191505090505b50905060008267ffffffffffffffff81111561067f577f4e487b7100000000000000000000000000000000000000000000000000000000600052604160045260246000fd5b6040519080825280602002602001820160405280156106ad5781602001602082028036833780820191505090505b5090506000805b6000805490508110156108dd5787600082815481106106fc577f4e487b7100000000000000000000000000000000000000000000000000000000600052603260045260246000fd5b90600052602060002090600402016002015414156108ca57600080828154811061074f577f4e487b7100000000000000000000000000000000000000000000000000000000600052603260045260246000fd5b90600052602060002090600402016001015490506000805b8481101561082557828782815181106107a9577f4e487b7100000000000000000000000000000000000000000000000000000000600052603260045260246000fd5b60200260200101511415610812578581815181106107f0577f4e487b7100000000000000000000000000000000000000000000000000000000600052603260045260246000fd5b60200260200101805180919061080590610cef565b8152505060019150610825565b808061081d90610cef565b915050610767565b50806108c75781868581518110610865577f4e487b7100000000000000000000000000000000000000000000000000000000600052603260045260246000fd5b60200260200101818152505060018585815181106108ac577f4e487b7100000000000000000000000000000000000000000000000000000000600052603260045260246000fd5b60200260200101818152505083806108c390610cef565b9450505b50505b80806108d590610cef565b9150506106b4565b5080835280825282829550955050505050915091565b6040518060800160405280600081526020016000815260200160008152602001600081525090565b60008135905061092a81610d67565b92915050565b60006020828403121561094257600080fd5b60006109508482850161091b565b91505092915050565b6000806040838503121561096c57600080fd5b600061097a8582860161091b565b925050602061098b8582860161091b565b9150509250929050565b6000806000606084860312156109aa57600080fd5b60006109b88682870161091b565b93505060206109c98682870161091b565b92505060406109da8682870161091b565b9150509250925092565b60006109f08383610b64565b60208301905092915050565b6000610a0782610c9f565b610a118185610cb7565b9350610a1c83610c8f565b8060005b83811015610a4d578151610a3488826109e4565b9750610a3f83610caa565b925050600181019050610a20565b5085935050505092915050565b610a6381610cd9565b82525050565b6000610a76601f83610cc8565b91507f496e6465782076c6b0e1bba374207175c3a1206769e1bb9b692068e1baa16e006000830152602082019050919050565b6000610ab6603b83610cc8565b91507f42e1baa16e20c491c3a32062e1bb8f20706869e1babf752074726f6e6720637560008301527fe1bb99632062e1baa7752063e1bbad206ec3a0792072e1bb93692e00000000006020830152604082019050919050565b608082016000820151610b256000850182610b64565b506020820151610b386020850182610b64565b506040820151610b4b6040850182610b64565b506060820151610b5e6060850182610b64565b50505050565b610b6d81610ce5565b82525050565b610b7c81610ce5565b82525050565b60006040820190508181036000830152610b9c81856109fc565b90508181036020830152610bb081846109fc565b90509392505050565b6000602082019050610bce6000830184610a5a565b92915050565b60006020820190508181036000830152610bed81610a69565b9050919050565b60006020820190508181036000830152610c0d81610aa9565b9050919050565b6000608082019050610c296000830184610b0f565b92915050565b6000602082019050610c446000830184610b73565b92915050565b6000608082019050610c5f6000830187610b73565b610c6c6020830186610b73565b610c796040830185610b73565b610c866060830184610b73565b95945050505050565b6000819050602082019050919050565b600081519050919050565b6000602082019050919050565b600082825260208201905092915050565b600082825260208201905092915050565b60008115159050919050565b6000819050919050565b6000610cfa82610ce5565b91507fffffffffffffffffffffffffffffffffffffffffffffffffffffffffffffffff821415610d2d57610d2c610d38565b5b600182019050919050565b7f4e487b7100000000000000000000000000000000000000000000000000000000600052601160045260246000fd5b610d7081610ce5565b8114610d7b57600080fd5b5056fea2646970667358221220bd0ae9c6cb8691770652b914e273468298e2ad008e415cbf034f7deb5825e0f864736f6c63430008000033",
  "immutableReferences": {},
  "source": "// SPDX-License-Identifier: MIT\r\npragma solidity ^0.8.0;\r\n\r\ncontract VotingContract {\r\n    struct Vote {\r\n        uint256 userId;\r\n        uint256 candidateId;\r\n        uint256 electionId;\r\n        uint256 timestamp;\r\n    }\r\n\r\n    Vote[] public votes; // Mng  lu tr cc phiu bu\r\n\r\n    event VoteCast(uint256 userId, uint256 candidateId, uint256 electionId, uint256 timestamp); // S kin khi c phiu bu mi\r\n\r\n    mapping(uint256 => mapping(uint256 => bool)) public hasVoted;\r\n\r\n    function castVote(uint256 _userId, uint256 _candidateId, uint256 _electionId) public {\r\n\r\n        require(!hasVoted[_userId][_electionId],  unicode\"Bn  b phiu trong cuc bu c ny ri.\");\r\n\r\n        // To mt i tng Vote mi\r\n        Vote memory newVote = Vote({\r\n            userId: _userId,\r\n            candidateId: _candidateId,\r\n            electionId: _electionId,\r\n            timestamp: block.timestamp // Ly timestamp hin ti ca block\r\n        });\r\n\r\n        votes.push(newVote); // Thm phiu bu vo mng\r\n\r\n        emit VoteCast(_userId, _candidateId, _electionId, block.timestamp); // Pht ra s kin VoteCast\r\n\r\n        hasVoted[_userId][_electionId] = true;\r\n\r\n    }\r\n\r\n    function checkHasVoted(uint256 _userId, uint256 _electionId) public view returns (bool) {\r\n        return hasVoted[_userId][_electionId];\r\n    }\r\n    \r\n    // Hm  ly s lng phiu bu theo electionId\r\n    function getVoteCount(uint256 _electionId) public view returns (uint256) {\r\n        uint256 count = 0;\r\n        for (uint256 i = 0; i < votes.length; i++) {\r\n            if (votes[i].electionId == _electionId) {\r\n                count++;\r\n            }\r\n        }\r\n        return count;\r\n    }\r\n\r\n    // Hm  ly thng tin ca mt phiu bu c th da trn index (cho mc ch kim tra)\r\n    function getVote(uint256 index) public view returns (Vote memory) {\r\n        require(index < votes.length, unicode\"Index vt qu gii hn\");        \r\n        return votes[index];\r\n    }\r\n\r\n    // Hm tng hp phiu bu theo electionId\r\n    function getElectionResults(uint _electionId) public view returns (uint[] memory, uint[] memory) {\r\n        // m s lng ng vin trong cuc bu c\r\n        uint totalVotes = 0;\r\n        for (uint i = 0; i < votes.length; i++) {\r\n            if (votes[i].electionId == _electionId) {\r\n                totalVotes++;\r\n            }\r\n        }\r\n\r\n        // Mng  lu thng tin ng vin v s phiu\r\n        uint[] memory candidateIds = new uint[](totalVotes);\r\n        uint[] memory voteCounts = new uint[](totalVotes);\r\n        uint candidateCount = 0;\r\n\r\n        // Duyt qua danh sch phiu  tng hp s phiu\r\n        for (uint i = 0; i < votes.length; i++) {\r\n            if (votes[i].electionId == _electionId) {\r\n                uint candidateId = votes[i].candidateId;\r\n                bool found = false;\r\n\r\n                // Kim tra xem ng vin  c trong danh sch cha\r\n                for (uint j = 0; j < candidateCount; j++) {\r\n                    if (candidateIds[j] == candidateId) {\r\n                        voteCounts[j]++;\r\n                        found = true;\r\n                        break;\r\n                    }\r\n                }\r\n\r\n                // Nu ng vin cha c trong danh sch, thm mi\r\n                if (!found) {\r\n                    candidateIds[candidateCount] = candidateId;\r\n                    voteCounts[candidateCount] = 1;\r\n                    candidateCount++;\r\n                }\r\n            }\r\n        }\r\n\r\n        // Ct bt mng  ch ly s lng ng vin thc t\r\n        assembly {\r\n            mstore(candidateIds, candidateCount)\r\n            mstore(voteCounts, candidateCount)\r\n        }\r\n\r\n        return (candidateIds, voteCounts);\r\n    }\r\n}",
  "sourcePath": "C:\\Users\\minhh\\Downloads\\VotingBlockchain\\contracts\\VotingContract.sol",
  "compiler": {
    "name": "solc",
    "version": "0.8.0+commit.c7dfd78e.Emscripten.clang"
  },
  "schemaVersion": "3.4.16",
  "updatedAt": "2025-03-30T08:20:22.202Z",
  "networkType": "ethereum",
  "devdoc": {
    "kind": "dev",
    "methods": {},
    "version": 1
  },
  "userdoc": {
    "kind": "user",
    "methods": {},
    "version": 1
  }
}