{
  "contractName": "VotingContract",
  "abi": [
    {
      "anonymous": false,
      "inputs": [
        {
          "indexed": false,
          "internalType": "uint256",
          "name": "userId",
          "type": "uint256"
        },
        {
          "indexed": false,
          "internalType": "uint256",
          "name": "candidateId",
          "type": "uint256"
        },
        {
          "indexed": false,
          "internalType": "uint256",
          "name": "electionId",
          "type": "uint256"
        },
        {
          "indexed": false,
          "internalType": "uint256",
          "name": "timestamp",
          "type": "uint256"
        }
      ],
      "name": "VoteCast",
      "type": "event"
    },
    {
      "inputs": [
        {
          "internalType": "uint256",
          "name": "",
          "type": "uint256"
        },
        {
          "internalType": "uint256",
          "name": "",
          "type": "uint256"
        }
      ],
      "name": "hasVoted",
      "outputs": [
        {
          "internalType": "bool",
          "name": "",
          "type": "bool"
        }
      ],
      "stateMutability": "view",
      "type": "function",
      "constant": true
    },
    {
      "inputs": [
        {
          "internalType": "uint256",
          "name": "",
          "type": "uint256"
        }
      ],
      "name": "votes",
      "outputs": [
        {
          "internalType": "uint256",
          "name": "userId",
          "type": "uint256"
        },
        {
          "internalType": "uint256",
          "name": "candidateId",
          "type": "uint256"
        },
        {
          "internalType": "uint256",
          "name": "electionId",
          "type": "uint256"
        },
        {
          "internalType": "uint256",
          "name": "timestamp",
          "type": "uint256"
        }
      ],
      "stateMutability": "view",
      "type": "function",
      "constant": true
    },
    {
      "inputs": [
        {
          "internalType": "uint256",
          "name": "_userId",
          "type": "uint256"
        },
        {
          "internalType": "uint256",
          "name": "_candidateId",
          "type": "uint256"
        },
        {
          "internalType": "uint256",
          "name": "_electionId",
          "type": "uint256"
        }
      ],
      "name": "castVote",
      "outputs": [],
      "stateMutability": "nonpayable",
      "type": "function"
    },
    {
      "inputs": [
        {
          "internalType": "uint256",
          "name": "_userId",
          "type": "uint256"
        },
        {
          "internalType": "uint256",
          "name": "_electionId",
          "type": "uint256"
        }
      ],
      "name": "checkHasVoted",
      "outputs": [
        {
          "internalType": "bool",
          "name": "",
          "type": "bool"
        }
      ],
      "stateMutability": "view",
      "type": "function",
      "constant": true
    },
    {
      "inputs": [],
      "name": "getVoteCount",
      "outputs": [
        {
          "internalType": "uint256",
          "name": "",
          "type": "uint256"
        }
      ],
      "stateMutability": "view",
      "type": "function",
      "constant": true
    },
    {
      "inputs": [
        {
          "internalType": "uint256",
          "name": "index",
          "type": "uint256"
        }
      ],
      "name": "getVote",
      "outputs": [
        {
          "components": [
            {
              "internalType": "uint256",
              "name": "userId",
              "type": "uint256"
            },
            {
              "internalType": "uint256",
              "name": "candidateId",
              "type": "uint256"
            },
            {
              "internalType": "uint256",
              "name": "electionId",
              "type": "uint256"
            },
            {
              "internalType": "uint256",
              "name": "timestamp",
              "type": "uint256"
            }
          ],
          "internalType": "struct VotingContract.Vote",
          "name": "",
          "type": "tuple"
        }
      ],
      "stateMutability": "view",
      "type": "function",
      "constant": true
    }
  ],
  "bytecode": "0x608060405234801561001057600080fd5b506107bb806100206000396000f3fe608060405234801561001057600080fd5b50600436106100625760003560e01c806344e0e168146100675780635a55c1f0146100975780635be5e3ec146100c75780635df81330146100e357806364390ff114610116578063e7b3387c14610146575b600080fd5b610081600480360381019061007c91906104be565b610164565b60405161008e9190610671565b60405180910390f35b6100b160048036038101906100ac9190610495565b6101a0565b6040516100be91906106cc565b60405180910390f35b6100e160048036038101906100dc91906104fa565b610271565b005b6100fd60048036038101906100f89190610495565b6103dd565b60405161010d9493929190610702565b60405180910390f35b610130600480360381019061012b91906104be565b61041d565b60405161013d9190610671565b60405180910390f35b61014e61044c565b60405161015b91906106e7565b60405180910390f35b600060016000848152602001908152602001600020600083815260200190815260200160002060009054906101000a900460ff16905092915050565b6101a8610458565b60008054905082106101ef576040517f08c379a00000000000000000000000000000000000000000000000000000000081526004016101e69061068c565b60405180910390fd5b60008281548110610229577f4e487b7100000000000000000000000000000000000000000000000000000000600052603260045260246000fd5b90600052602060002090600402016040518060800160405290816000820154815260200160018201548152602001600282015481526020016003820154815250509050919050565b60016000848152602001908152602001600020600082815260200190815260200160002060009054906101000a900460ff16156102e3576040517f08c379a00000000000000000000000000000000000000000000000000000000081526004016102da906106ac565b60405180910390fd5b6000604051806080016040528085815260200184815260200183815260200142815250905060008190806001815401808255809150506001900390600052602060002090600402016000909190919091506000820151816000015560208201518160010155604082015181600201556060820151816003015550507f2327a15d67e277c37565fa2884c3b26a1013ceff86bc0214b280225ba1be19a7848484426040516103939493929190610702565b60405180910390a16001806000868152602001908152602001600020600084815260200190815260200160002060006101000a81548160ff02191690831515021790555050505050565b600081815481106103ed57600080fd5b90600052602060002090600402016000915090508060000154908060010154908060020154908060030154905084565b60016020528160005260406000206020528060005260406000206000915091509054906101000a900460ff1681565b60008080549050905090565b6040518060800160405280600081526020016000815260200160008152602001600081525090565b60008135905061048f8161076e565b92915050565b6000602082840312156104a757600080fd5b60006104b584828501610480565b91505092915050565b600080604083850312156104d157600080fd5b60006104df85828601610480565b92505060206104f085828601610480565b9150509250929050565b60008060006060848603121561050f57600080fd5b600061051d86828701610480565b935050602061052e86828701610480565b925050604061053f86828701610480565b9150509250925092565b61055281610758565b82525050565b6000610565601f83610747565b91507f496e6465782076c6b0e1bba374207175c3a1206769e1bb9b692068e1baa16e006000830152602082019050919050565b60006105a5603b83610747565b91507f42e1baa16e20c491c3a32062e1bb8f20706869e1babf752074726f6e6720637560008301527fe1bb99632062e1baa7752063e1bbad206ec3a0792072e1bb93692e00000000006020830152604082019050919050565b6080820160008201516106146000850182610653565b5060208201516106276020850182610653565b50604082015161063a6040850182610653565b50606082015161064d6060850182610653565b50505050565b61065c81610764565b82525050565b61066b81610764565b82525050565b60006020820190506106866000830184610549565b92915050565b600060208201905081810360008301526106a581610558565b9050919050565b600060208201905081810360008301526106c581610598565b9050919050565b60006080820190506106e160008301846105fe565b92915050565b60006020820190506106fc6000830184610662565b92915050565b60006080820190506107176000830187610662565b6107246020830186610662565b6107316040830185610662565b61073e6060830184610662565b95945050505050565b600082825260208201905092915050565b60008115159050919050565b6000819050919050565b61077781610764565b811461078257600080fd5b5056fea26469706673582212208099b6295837efd0c1647ebe6ebc910466d13d601731bd15439769718e5b616b64736f6c63430008000033",
  "immutableReferences": {},
  "source": "// SPDX-License-Identifier: MIT\r\npragma solidity ^0.8.0;\r\n\r\ncontract VotingContract {\r\n    struct Vote {\r\n        uint256 userId;\r\n        uint256 candidateId;\r\n        uint256 electionId;\r\n        uint256 timestamp;\r\n    }\r\n\r\n    Vote[] public votes; // Mng  lu tr cc phiu bu\r\n\r\n    event VoteCast(uint256 userId, uint256 candidateId, uint256 electionId, uint256 timestamp); // S kin khi c phiu bu mi\r\n\r\n    mapping(uint256 => mapping(uint256 => bool)) public hasVoted;\r\n\r\n    function castVote(uint256 _userId, uint256 _candidateId, uint256 _electionId) public {\r\n\r\n        require(!hasVoted[_userId][_electionId],  unicode\"Bn  b phiu trong cuc bu c ny ri.\");\r\n\r\n        // To mt i tng Vote mi\r\n        Vote memory newVote = Vote({\r\n            userId: _userId,\r\n            candidateId: _candidateId,\r\n            electionId: _electionId,\r\n            timestamp: block.timestamp // Ly timestamp hin ti ca block\r\n        });\r\n\r\n        votes.push(newVote); // Thm phiu bu vo mng\r\n\r\n        emit VoteCast(_userId, _candidateId, _electionId, block.timestamp); // Pht ra s kin VoteCast\r\n\r\n        hasVoted[_userId][_electionId] = true;\r\n\r\n    }\r\n\r\n    function checkHasVoted(uint256 _userId, uint256 _electionId) public view returns (bool) {\r\n        return hasVoted[_userId][_electionId];\r\n    }\r\n    \r\n    // Hm  ly s lng phiu bu  c ghi nhn (cho mc ch kim tra)\r\n    function getVoteCount() public view returns (uint256) {\r\n        return votes.length;\r\n    }\r\n\r\n    // Hm  ly thng tin ca mt phiu bu c th da trn index (cho mc ch kim tra)\r\n    function getVote(uint256 index) public view returns (Vote memory) {\r\nrequire(index < votes.length, unicode\"Index vt qu gii hn\");        return votes[index];\r\n    }\r\n}",
  "sourcePath": "D:\\Program Files\\Block-chain\\VottingBlockChain\\Client\\contracts\\VotingContract.sol",
  "compiler": {
    "name": "solc",
    "version": "0.8.0+commit.c7dfd78e.Emscripten.clang"
  },
  "schemaVersion": "3.4.16",
  "updatedAt": "2025-03-30T02:38:34.683Z",
  "networkType": "ethereum",
  "devdoc": {
    "kind": "dev",
    "methods": {},
    "version": 1
  },
  "userdoc": {
    "kind": "user",
    "methods": {},
    "version": 1
  }
}