{
  "contractName": "VotingContract",
  "abi": [
    {
      "anonymous": false,
      "inputs": [
        {
          "indexed": false,
          "internalType": "uint256",
          "name": "userId",
          "type": "uint256"
        },
        {
          "indexed": false,
          "internalType": "uint256",
          "name": "candidateId",
          "type": "uint256"
        },
        {
          "indexed": false,
          "internalType": "uint256",
          "name": "electionId",
          "type": "uint256"
        },
        {
          "indexed": false,
          "internalType": "uint256",
          "name": "timestamp",
          "type": "uint256"
        }
      ],
      "name": "VoteCast",
      "type": "event"
    },
    {
      "inputs": [
        {
          "internalType": "uint256",
          "name": "",
          "type": "uint256"
        }
      ],
      "name": "votes",
      "outputs": [
        {
          "internalType": "uint256",
          "name": "userId",
          "type": "uint256"
        },
        {
          "internalType": "uint256",
          "name": "candidateId",
          "type": "uint256"
        },
        {
          "internalType": "uint256",
          "name": "electionId",
          "type": "uint256"
        },
        {
          "internalType": "uint256",
          "name": "timestamp",
          "type": "uint256"
        }
      ],
      "stateMutability": "view",
      "type": "function",
      "constant": true
    },
    {
      "inputs": [
        {
          "internalType": "uint256",
          "name": "_userId",
          "type": "uint256"
        },
        {
          "internalType": "uint256",
          "name": "_candidateId",
          "type": "uint256"
        },
        {
          "internalType": "uint256",
          "name": "_electionId",
          "type": "uint256"
        }
      ],
      "name": "castVote",
      "outputs": [],
      "stateMutability": "nonpayable",
      "type": "function"
    },
    {
      "inputs": [],
      "name": "getVoteCount",
      "outputs": [
        {
          "internalType": "uint256",
          "name": "",
          "type": "uint256"
        }
      ],
      "stateMutability": "view",
      "type": "function",
      "constant": true
    },
    {
      "inputs": [
        {
          "internalType": "uint256",
          "name": "index",
          "type": "uint256"
        }
      ],
      "name": "getVote",
      "outputs": [
        {
          "components": [
            {
              "internalType": "uint256",
              "name": "userId",
              "type": "uint256"
            },
            {
              "internalType": "uint256",
              "name": "candidateId",
              "type": "uint256"
            },
            {
              "internalType": "uint256",
              "name": "electionId",
              "type": "uint256"
            },
            {
              "internalType": "uint256",
              "name": "timestamp",
              "type": "uint256"
            }
          ],
          "internalType": "struct VotingContract.Vote",
          "name": "",
          "type": "tuple"
        }
      ],
      "stateMutability": "view",
      "type": "function",
      "constant": true
    }
  ],
  "bytecode": "0x608060405234801561001057600080fd5b50610534806100206000396000f3fe608060405234801561001057600080fd5b506004361061004c5760003560e01c80635a55c1f0146100515780635be5e3ec146100815780635df813301461009d578063e7b3387c146100d0575b600080fd5b61006b60048036038101906100669190610306565b6100ee565b6040516100789190610451565b60405180910390f35b61009b6004803603810190610096919061032f565b6101bf565b005b6100b760048036038101906100b29190610306565b61027d565b6040516100c79493929190610487565b60405180910390f35b6100d86102bd565b6040516100e5919061046c565b60405180910390f35b6100f66102c9565b600080549050821061013d576040517f08c379a000000000000000000000000000000000000000000000000000000000815260040161013490610431565b60405180910390fd5b60008281548110610177577f4e487b7100000000000000000000000000000000000000000000000000000000600052603260045260246000fd5b90600052602060002090600402016040518060800160405290816000820154815260200160018201548152602001600282015481526020016003820154815250509050919050565b6000604051806080016040528085815260200184815260200183815260200142815250905060008190806001815401808255809150506001900390600052602060002090600402016000909190919091506000820151816000015560208201518160010155604082015181600201556060820151816003015550507f2327a15d67e277c37565fa2884c3b26a1013ceff86bc0214b280225ba1be19a78484844260405161026f9493929190610487565b60405180910390a150505050565b6000818154811061028d57600080fd5b90600052602060002090600402016000915090508060000154908060010154908060020154908060030154905084565b60008080549050905090565b6040518060800160405280600081526020016000815260200160008152602001600081525090565b600081359050610300816104e7565b92915050565b60006020828403121561031857600080fd5b6000610326848285016102f1565b91505092915050565b60008060006060848603121561034457600080fd5b6000610352868287016102f1565b9350506020610363868287016102f1565b9250506040610374868287016102f1565b9150509250925092565b600061038b601f836104cc565b91507f496e6465782076c6b0e1bba374207175c3a1206769e1bb9b692068e1baa16e006000830152602082019050919050565b6080820160008201516103d46000850182610413565b5060208201516103e76020850182610413565b5060408201516103fa6040850182610413565b50606082015161040d6060850182610413565b50505050565b61041c816104dd565b82525050565b61042b816104dd565b82525050565b6000602082019050818103600083015261044a8161037e565b9050919050565b600060808201905061046660008301846103be565b92915050565b60006020820190506104816000830184610422565b92915050565b600060808201905061049c6000830187610422565b6104a96020830186610422565b6104b66040830185610422565b6104c36060830184610422565b95945050505050565b600082825260208201905092915050565b6000819050919050565b6104f0816104dd565b81146104fb57600080fd5b5056fea264697066735822122059ce5c784477c53d3d1893befdb67fc09efa5debdfdf00ae0ed4eb566536f05d64736f6c63430008000033",
  "immutableReferences": {},
  "source": "// SPDX-License-Identifier: MIT\r\npragma solidity ^0.8.0;\r\n\r\ncontract VotingContract {\r\n    struct Vote {\r\n        uint userId;\r\n        uint candidateId;\r\n        uint electionId;\r\n        uint timestamp;\r\n    }\r\n\r\n    Vote[] public votes; // Mng  lu tr cc phiu bu\r\n\r\n    event VoteCast(uint userId, uint candidateId, uint electionId, uint timestamp); // S kin khi c phiu bu mi\r\n\r\n    function castVote(uint _userId, uint _candidateId, uint _electionId) public {\r\n        // To mt i tng Vote mi\r\n        Vote memory newVote = Vote({\r\n            userId: _userId,\r\n            candidateId: _candidateId,\r\n            electionId: _electionId,\r\n            timestamp: block.timestamp // Ly timestamp hin ti ca block\r\n        });\r\n\r\n        votes.push(newVote); // Thm phiu bu vo mng\r\n\r\n        emit VoteCast(_userId, _candidateId, _electionId, block.timestamp); // Pht ra s kin VoteCast\r\n    }\r\n\r\n    // Hm  ly s lng phiu bu  c ghi nhn (cho mc ch kim tra)\r\n    function getVoteCount() public view returns (uint) {\r\n        return votes.length;\r\n    }\r\n\r\n    // Hm  ly thng tin ca mt phiu bu c th da trn index (cho mc ch kim tra)\r\n    function getVote(uint index) public view returns (Vote memory) {\r\nrequire(index < votes.length, unicode\"Index vt qu gii hn\");        return votes[index];\r\n    }\r\n}",
  "sourcePath": "D:\\Program Files\\Block-chain\\VottingBlockChain\\Client\\contracts\\VotingContract.sol",
  "compiler": {
    "name": "solc",
    "version": "0.8.0+commit.c7dfd78e.Emscripten.clang"
  },
  "schemaVersion": "3.4.16",
  "updatedAt": "2025-03-27T15:02:56.426Z",
  "networkType": "ethereum",
  "devdoc": {
    "kind": "dev",
    "methods": {},
    "version": 1
  },
  "userdoc": {
    "kind": "user",
    "methods": {},
    "version": 1
  }
}